{
  "_format": "hh-sol-artifact-1",
  "contractName": "voting",
  "sourceName": "contracts/voting.sol",
  "abi": [
    {
      "inputs": [
        {
          "internalType": "address",
          "name": "candidate",
          "type": "address"
        }
      ],
      "name": "GetTotalFunds",
      "outputs": [
        {
          "internalType": "uint256",
          "name": "",
          "type": "uint256"
        }
      ],
      "stateMutability": "view",
      "type": "function"
    },
    {
      "inputs": [
        {
          "internalType": "address payable",
          "name": "candidate",
          "type": "address"
        }
      ],
      "name": "SendEth",
      "outputs": [],
      "stateMutability": "payable",
      "type": "function"
    },
    {
      "inputs": [
        {
          "internalType": "address",
          "name": "candidate",
          "type": "address"
        }
      ],
      "name": "getVoteCount",
      "outputs": [
        {
          "internalType": "uint256",
          "name": "",
          "type": "uint256"
        }
      ],
      "stateMutability": "view",
      "type": "function"
    },
    {
      "inputs": [
        {
          "internalType": "address",
          "name": "candidate",
          "type": "address"
        }
      ],
      "name": "vote",
      "outputs": [],
      "stateMutability": "nonpayable",
      "type": "function"
    }
  ],
  "bytecode": "0x608060405234801561001057600080fd5b506105f2806100206000396000f3fe60806040526004361061003f5760003560e01c80636dd7d8ea146100445780637e690cbc1461006d578063e652f4cc146100aa578063fd89bf02146100e7575b600080fd5b34801561005057600080fd5b5061006b60048036038101906100669190610382565b610103565b005b34801561007957600080fd5b50610094600480360381019061008f9190610382565b610221565b6040516100a191906103c8565b60405180910390f35b3480156100b657600080fd5b506100d160048036038101906100cc9190610382565b610242565b6040516100de91906103c8565b60405180910390f35b61010160048036038101906100fc9190610421565b61028b565b005b60008060003373ffffffffffffffffffffffffffffffffffffffff1673ffffffffffffffffffffffffffffffffffffffff1681526020019081526020016000205414610184576040517f08c379a000000000000000000000000000000000000000000000000000000000815260040161017b906104ab565b60405180910390fd5b60016000803373ffffffffffffffffffffffffffffffffffffffff1673ffffffffffffffffffffffffffffffffffffffff1681526020019081526020016000208190555060018060008373ffffffffffffffffffffffffffffffffffffffff1673ffffffffffffffffffffffffffffffffffffffff168152602001908152602001600020600082825461021791906104fa565b9250508190555050565b60008173ffffffffffffffffffffffffffffffffffffffff16319050919050565b6000600160008373ffffffffffffffffffffffffffffffffffffffff1673ffffffffffffffffffffffffffffffffffffffff168152602001908152602001600020549050919050565b66b1a2bc2ec500003410156102d5576040517f08c379a00000000000000000000000000000000000000000000000000000000081526004016102cc9061059c565b60405180910390fd5b8073ffffffffffffffffffffffffffffffffffffffff166108fc349081150290604051600060405180830381858888f1935050505015801561031b573d6000803e3d6000fd5b5050565b600080fd5b600073ffffffffffffffffffffffffffffffffffffffff82169050919050565b600061034f82610324565b9050919050565b61035f81610344565b811461036a57600080fd5b50565b60008135905061037c81610356565b92915050565b6000602082840312156103985761039761031f565b5b60006103a68482850161036d565b91505092915050565b6000819050919050565b6103c2816103af565b82525050565b60006020820190506103dd60008301846103b9565b92915050565b60006103ee82610324565b9050919050565b6103fe816103e3565b811461040957600080fd5b50565b60008135905061041b816103f5565b92915050565b6000602082840312156104375761043661031f565b5b60006104458482850161040c565b91505092915050565b600082825260208201905092915050565b7f596f75206861766520616c726561647920766f74656400000000000000000000600082015250565b600061049560168361044e565b91506104a08261045f565b602082019050919050565b600060208201905081810360008301526104c481610488565b9050919050565b7f4e487b7100000000000000000000000000000000000000000000000000000000600052601160045260246000fd5b6000610505826103af565b9150610510836103af565b9250827fffffffffffffffffffffffffffffffffffffffffffffffffffffffffffffffff03821115610545576105446104cb565b5b828201905092915050565b7f73686f756c642062652061746c65617374203120657468657200000000000000600082015250565b600061058660198361044e565b915061059182610550565b602082019050919050565b600060208201905081810360008301526105b581610579565b905091905056fea26469706673582212206d7554a2fccf5292c7b1a0657223e7a6ff1b921c034df64b87587b0e8fac08ba64736f6c63430008090033",
  "linkReferences": {},
  "deployedLinkReferences": {}
}